{
  "address": "0x0868D79163ee19e197Ab36099752E8E52D5b8445",
  "abi": [
    {
      "inputs": [
        {
          "internalType": "address",
          "name": "pricefeedAddress",
          "type": "address"
        }
      ],
      "stateMutability": "nonpayable",
      "type": "constructor"
    },
    {
      "inputs": [],
      "name": "NotEnoughEth",
      "type": "error"
    },
    {
      "inputs": [],
      "name": "NotOwner",
      "type": "error"
    },
    {
      "stateMutability": "payable",
      "type": "fallback"
    },
    {
      "inputs": [],
      "name": "MINIMUM_USD",
      "outputs": [
        {
          "internalType": "uint256",
          "name": "",
          "type": "uint256"
        }
      ],
      "stateMutability": "view",
      "type": "function"
    },
    {
      "inputs": [],
      "name": "cheaperWithdraw",
      "outputs": [],
      "stateMutability": "nonpayable",
      "type": "function"
    },
    {
      "inputs": [],
      "name": "fund",
      "outputs": [],
      "stateMutability": "payable",
      "type": "function"
    },
    {
      "inputs": [
        {
          "internalType": "address",
          "name": "fundingAddress",
          "type": "address"
        }
      ],
      "name": "getAddressToamoutFunded",
      "outputs": [
        {
          "internalType": "uint256",
          "name": "",
          "type": "uint256"
        }
      ],
      "stateMutability": "view",
      "type": "function"
    },
    {
      "inputs": [
        {
          "internalType": "uint256",
          "name": "index",
          "type": "uint256"
        }
      ],
      "name": "getFunders",
      "outputs": [
        {
          "internalType": "address",
          "name": "",
          "type": "address"
        }
      ],
      "stateMutability": "view",
      "type": "function"
    },
    {
      "inputs": [],
      "name": "getOwner",
      "outputs": [
        {
          "internalType": "address",
          "name": "",
          "type": "address"
        }
      ],
      "stateMutability": "view",
      "type": "function"
    },
    {
      "inputs": [],
      "name": "getPriceFeed",
      "outputs": [
        {
          "internalType": "contract AggregatorV3Interface",
          "name": "",
          "type": "address"
        }
      ],
      "stateMutability": "view",
      "type": "function"
    },
    {
      "inputs": [],
      "name": "withdraw",
      "outputs": [],
      "stateMutability": "nonpayable",
      "type": "function"
    },
    {
      "stateMutability": "payable",
      "type": "receive"
    }
  ],
  "transactionHash": "0x2eb39e333149606545a76cfee914070769b58e417f5adaa30c3cb289d9fc20c8",
  "args": [
    "0x694AA1769357215DE4FAC081bf1f309aDC325306"
  ],
  "numDeployments": 1,
  "solcInputHash": "16dedcaba2e1a85c831e9799a226cab3",
  "bytecode": "0x60a06040523480156200001157600080fd5b506040516200119a3803806200119a83398181016040528101906200003791906200011d565b3373ffffffffffffffffffffffffffffffffffffffff1660808173ffffffffffffffffffffffffffffffffffffffff168152505080600260006101000a81548173ffffffffffffffffffffffffffffffffffffffff021916908373ffffffffffffffffffffffffffffffffffffffff160217905550506200014f565b600080fd5b600073ffffffffffffffffffffffffffffffffffffffff82169050919050565b6000620000e582620000b8565b9050919050565b620000f781620000d8565b81146200010357600080fd5b50565b6000815190506200011781620000ec565b92915050565b600060208284031215620001365762000135620000b3565b5b6000620001468482850162000106565b91505092915050565b608051611021620001796000396000818161034501528181610594015261062c01526110216000f3fe60806040526004361061007f5760003560e01c806396322f271161004e57806396322f27146101425780639e87a5cd1461017f578063b60d4288146101aa578063be2693f0146101b45761008e565b80633a7b6c74146100985780633ccfd60b146100d55780636b69a592146100ec578063893d20e8146101175761008e565b3661008e5761008c6101cb565b005b6100966101cb565b005b3480156100a457600080fd5b506100bf60048036038101906100ba9190610a77565b6102fb565b6040516100cc9190610ae5565b60405180910390f35b3480156100e157600080fd5b506100ea610343565b005b3480156100f857600080fd5b50610101610583565b60405161010e9190610b0f565b60405180910390f35b34801561012357600080fd5b5061012c610590565b6040516101399190610ae5565b60405180910390f35b34801561014e57600080fd5b5061016960048036038101906101649190610b56565b6105b8565b6040516101769190610b0f565b60405180910390f35b34801561018b57600080fd5b50610194610600565b6040516101a19190610be2565b60405180910390f35b6101b26101cb565b005b3480156101c057600080fd5b506101c961062a565b005b6802b5e3af16b188000061020a600260009054906101000a900473ffffffffffffffffffffffffffffffffffffffff16346108c890919063ffffffff16565b11610241576040517ff14a42b700000000000000000000000000000000000000000000000000000000815260040160405180910390fd5b346000803373ffffffffffffffffffffffffffffffffffffffff1673ffffffffffffffffffffffffffffffffffffffff168152602001908152602001600020600082825461028f9190610c2c565b925050819055506001339080600181540180825580915050600190039060005260206000200160009091909190916101000a81548173ffffffffffffffffffffffffffffffffffffffff021916908373ffffffffffffffffffffffffffffffffffffffff160217905550565b60006001828154811061031157610310610c60565b5b9060005260206000200160009054906101000a900473ffffffffffffffffffffffffffffffffffffffff169050919050565b7f000000000000000000000000000000000000000000000000000000000000000073ffffffffffffffffffffffffffffffffffffffff163373ffffffffffffffffffffffffffffffffffffffff16146103c8576040517f30cd747100000000000000000000000000000000000000000000000000000000815260040160405180910390fd5b60005b600180549050811015610473576000600182815481106103ee576103ed610c60565b5b9060005260206000200160009054906101000a900473ffffffffffffffffffffffffffffffffffffffff16905060008060008373ffffffffffffffffffffffffffffffffffffffff1673ffffffffffffffffffffffffffffffffffffffff1681526020019081526020016000208190555050808061046b90610c8f565b9150506103cb565b50600067ffffffffffffffff81111561048f5761048e610cd7565b5b6040519080825280602002602001820160405280156104bd5781602001602082028036833780820191505090505b50600190805190602001906104d3929190610995565b5060003373ffffffffffffffffffffffffffffffffffffffff16476040516104fa90610d37565b60006040518083038185875af1925050503d8060008114610537576040519150601f19603f3d011682016040523d82523d6000602084013e61053c565b606091505b5050905080610580576040517f08c379a000000000000000000000000000000000000000000000000000000000815260040161057790610da9565b60405180910390fd5b50565b6802b5e3af16b188000081565b60007f0000000000000000000000000000000000000000000000000000000000000000905090565b60008060008373ffffffffffffffffffffffffffffffffffffffff1673ffffffffffffffffffffffffffffffffffffffff168152602001908152602001600020549050919050565b6000600260009054906101000a900473ffffffffffffffffffffffffffffffffffffffff16905090565b7f000000000000000000000000000000000000000000000000000000000000000073ffffffffffffffffffffffffffffffffffffffff163373ffffffffffffffffffffffffffffffffffffffff16146106af576040517f30cd747100000000000000000000000000000000000000000000000000000000815260040160405180910390fd5b6000600180548060200260200160405190810160405280929190818152602001828054801561073357602002820191906000526020600020905b8160009054906101000a900473ffffffffffffffffffffffffffffffffffffffff1673ffffffffffffffffffffffffffffffffffffffff16815260200190600101908083116106e9575b5050505050905060005b81518110156107b757600080600084848151811061075e5761075d610c60565b5b602002602001015173ffffffffffffffffffffffffffffffffffffffff1673ffffffffffffffffffffffffffffffffffffffff1681526020019081526020016000208190555080806107af90610c8f565b91505061073d565b5060003373ffffffffffffffffffffffffffffffffffffffff16476040516107de90610d37565b60006040518083038185875af1925050503d806000811461081b576040519150601f19603f3d011682016040523d82523d6000602084013e610820565b606091505b5050905080610864576040517f08c379a000000000000000000000000000000000000000000000000000000000815260040161085b90610da9565b60405180910390fd5b600067ffffffffffffffff81111561087f5761087e610cd7565b5b6040519080825280602002602001820160405280156108ad5781602001602082028036833780820191505090505b50600190805190602001906108c3929190610995565b505050565b6000806108d483610904565b90506000670de0b6b3a764000085836108ed9190610dc9565b6108f79190610e3a565b9050809250505092915050565b6000808273ffffffffffffffffffffffffffffffffffffffff1663feaf968c6040518163ffffffff1660e01b815260040160a060405180830381865afa158015610952573d6000803e3d6000fd5b505050506040513d601f19601f820116820180604052508101906109769190610ef8565b5050509150506402540be4008161098d9190610f73565b915050919050565b828054828255906000526020600020908101928215610a0e579160200282015b82811115610a0d5782518260006101000a81548173ffffffffffffffffffffffffffffffffffffffff021916908373ffffffffffffffffffffffffffffffffffffffff160217905550916020019190600101906109b5565b5b509050610a1b9190610a1f565b5090565b5b80821115610a38576000816000905550600101610a20565b5090565b600080fd5b6000819050919050565b610a5481610a41565b8114610a5f57600080fd5b50565b600081359050610a7181610a4b565b92915050565b600060208284031215610a8d57610a8c610a3c565b5b6000610a9b84828501610a62565b91505092915050565b600073ffffffffffffffffffffffffffffffffffffffff82169050919050565b6000610acf82610aa4565b9050919050565b610adf81610ac4565b82525050565b6000602082019050610afa6000830184610ad6565b92915050565b610b0981610a41565b82525050565b6000602082019050610b246000830184610b00565b92915050565b610b3381610ac4565b8114610b3e57600080fd5b50565b600081359050610b5081610b2a565b92915050565b600060208284031215610b6c57610b6b610a3c565b5b6000610b7a84828501610b41565b91505092915050565b6000819050919050565b6000610ba8610ba3610b9e84610aa4565b610b83565b610aa4565b9050919050565b6000610bba82610b8d565b9050919050565b6000610bcc82610baf565b9050919050565b610bdc81610bc1565b82525050565b6000602082019050610bf76000830184610bd3565b92915050565b7f4e487b7100000000000000000000000000000000000000000000000000000000600052601160045260246000fd5b6000610c3782610a41565b9150610c4283610a41565b9250828201905080821115610c5a57610c59610bfd565b5b92915050565b7f4e487b7100000000000000000000000000000000000000000000000000000000600052603260045260246000fd5b6000610c9a82610a41565b91507fffffffffffffffffffffffffffffffffffffffffffffffffffffffffffffffff8203610ccc57610ccb610bfd565b5b600182019050919050565b7f4e487b7100000000000000000000000000000000000000000000000000000000600052604160045260246000fd5b600081905092915050565b50565b6000610d21600083610d06565b9150610d2c82610d11565b600082019050919050565b6000610d4282610d14565b9150819050919050565b600082825260208201905092915050565b7f43616c6c206661696c6564000000000000000000000000000000000000000000600082015250565b6000610d93600b83610d4c565b9150610d9e82610d5d565b602082019050919050565b60006020820190508181036000830152610dc281610d86565b9050919050565b6000610dd482610a41565b9150610ddf83610a41565b9250828202610ded81610a41565b91508282048414831517610e0457610e03610bfd565b5b5092915050565b7f4e487b7100000000000000000000000000000000000000000000000000000000600052601260045260246000fd5b6000610e4582610a41565b9150610e5083610a41565b925082610e6057610e5f610e0b565b5b828204905092915050565b600069ffffffffffffffffffff82169050919050565b610e8a81610e6b565b8114610e9557600080fd5b50565b600081519050610ea781610e81565b92915050565b6000819050919050565b610ec081610ead565b8114610ecb57600080fd5b50565b600081519050610edd81610eb7565b92915050565b600081519050610ef281610a4b565b92915050565b600080600080600060a08688031215610f1457610f13610a3c565b5b6000610f2288828901610e98565b9550506020610f3388828901610ece565b9450506040610f4488828901610ee3565b9350506060610f5588828901610ee3565b9250506080610f6688828901610e98565b9150509295509295909350565b6000610f7e82610ead565b9150610f8983610ead565b9250828202610f9781610ead565b91507f80000000000000000000000000000000000000000000000000000000000000008414600084121615610fcf57610fce610bfd565b5b8282058414831517610fe457610fe3610bfd565b5b509291505056fea264697066735822122071e659ea9ca80da638cccd2442a04786c8e47fe3de90eef35a8117dd79dbc52964736f6c63430008110033",
  "devdoc": {
    "author": "Yemin",
    "details": "this implement PriceConverter as a library",
    "kind": "dev",
    "methods": {
      "getAddressToamoutFunded(address)": {
        "params": {
          "fundingAddress": "the address of the funder"
        },
        "returns": {
          "_0": "the amount funded"
        }
      },
      "getFunders(uint256)": {
        "params": {
          "index": "the index of the funder"
        },
        "returns": {
          "_0": "the address of the i'th funder"
        }
      },
      "getOwner()": {
        "returns": {
          "_0": "the owner address"
        }
      },
      "getPriceFeed()": {
        "returns": {
          "_0": "the s_priceFeed address"
        }
      }
    },
    "title": "Funding Contract",
    "version": 1
  },
  "userdoc": {
    "kind": "user",
    "methods": {
      "fund()": {
        "notice": "Fund our contract with an amount of ETH based on ETH/USD price"
      },
      "getAddressToamoutFunded(address)": {
        "notice": "it is used to get the amount that an address has funded"
      },
      "getFunders(uint256)": {
        "notice": "it is used to get the address of funders following the chronological order"
      },
      "getOwner()": {
        "notice": "it is used to get the owner address"
      },
      "getPriceFeed()": {
        "notice": "return the address of the contract from which we are getting the price of ETH in ter of dollar"
      }
    },
    "notice": "This contract is made to gather funds for charity",
    "version": 1
  },
  "storageLayout": {
    "storage": [
      {
        "astId": 125,
        "contract": "contracts/fundMe.sol:FundMe",
        "label": "s_addressToamountFund",
        "offset": 0,
        "slot": "0",
        "type": "t_mapping(t_address,t_uint256)"
      },
      {
        "astId": 128,
        "contract": "contracts/fundMe.sol:FundMe",
        "label": "s_funders",
        "offset": 0,
        "slot": "1",
        "type": "t_array(t_address)dyn_storage"
      },
      {
        "astId": 131,
        "contract": "contracts/fundMe.sol:FundMe",
        "label": "s_priceFeed",
        "offset": 0,
        "slot": "2",
        "type": "t_contract(AggregatorV3Interface)45"
      }
    ],
    "types": {
      "t_address": {
        "encoding": "inplace",
        "label": "address",
        "numberOfBytes": "20"
      },
      "t_array(t_address)dyn_storage": {
        "base": "t_address",
        "encoding": "dynamic_array",
        "label": "address[]",
        "numberOfBytes": "32"
      },
      "t_contract(AggregatorV3Interface)45": {
        "encoding": "inplace",
        "label": "contract AggregatorV3Interface",
        "numberOfBytes": "20"
      },
      "t_mapping(t_address,t_uint256)": {
        "encoding": "mapping",
        "key": "t_address",
        "label": "mapping(address => uint256)",
        "numberOfBytes": "32",
        "value": "t_uint256"
      },
      "t_uint256": {
        "encoding": "inplace",
        "label": "uint256",
        "numberOfBytes": "32"
      }
    }
  }
}